{
  "address": "0xe7f1725E7734CE288F8367e1Bb143E90bb3F0512",
  "abi": [
    {
      "inputs": [
        {
          "internalType": "address",
          "name": "addressArgument",
          "type": "address"
        }
      ],
      "stateMutability": "nonpayable",
      "type": "constructor"
    },
    {
      "inputs": [],
      "name": "CrowdFund__NotOwner",
      "type": "error"
    },
    {
      "inputs": [],
      "name": "fund",
      "outputs": [],
      "stateMutability": "payable",
      "type": "function"
    },
    {
      "inputs": [
        {
          "internalType": "address",
          "name": "funder",
          "type": "address"
        }
      ],
      "name": "getAmountFundedByTheAddress",
      "outputs": [
        {
          "internalType": "uint256",
          "name": "",
          "type": "uint256"
        }
      ],
      "stateMutability": "view",
      "type": "function"
    },
    {
      "inputs": [
        {
          "internalType": "uint256",
          "name": "index",
          "type": "uint256"
        }
      ],
      "name": "getFunder",
      "outputs": [
        {
          "internalType": "address",
          "name": "",
          "type": "address"
        }
      ],
      "stateMutability": "view",
      "type": "function"
    },
    {
      "inputs": [],
      "name": "getOwner",
      "outputs": [
        {
          "internalType": "address",
          "name": "",
          "type": "address"
        }
      ],
      "stateMutability": "view",
      "type": "function"
    },
    {
      "inputs": [],
      "name": "getPriceFeed",
      "outputs": [
        {
          "internalType": "contract AggregatorV3Interface",
          "name": "",
          "type": "address"
        }
      ],
      "stateMutability": "view",
      "type": "function"
    },
    {
      "inputs": [],
      "name": "withDraw",
      "outputs": [],
      "stateMutability": "payable",
      "type": "function"
    }
  ],
  "transactionHash": "0x117605e912534850cf77ece013e48a93987cd328ac22c928ca43d361fde38f41",
  "args": [
    "0x5FbDB2315678afecb367f032d93F642f64180aa3"
  ],
  "numDeployments": 1,
  "solcInputHash": "767ac5c87928be7b88a79d21e1ed8ab7",
  "bytecode": "0x60a060405234801561001057600080fd5b50604051610f8f380380610f8f83398181016040528101906100329190610113565b3373ffffffffffffffffffffffffffffffffffffffff1660808173ffffffffffffffffffffffffffffffffffffffff1660601b8152505080600260006101000a81548173ffffffffffffffffffffffffffffffffffffffff021916908373ffffffffffffffffffffffffffffffffffffffff16021790555050610140565b600080fd5b600073ffffffffffffffffffffffffffffffffffffffff82169050919050565b60006100e0826100b5565b9050919050565b6100f0816100d5565b81146100fb57600080fd5b50565b60008151905061010d816100e7565b92915050565b600060208284031215610129576101286100b0565b5b6000610137848285016100fe565b91505092915050565b60805160601c610e2361016c600039600081816101a00152818161037f015261044f0152610e236000f3fe6080604052600436106100555760003560e01c806308cfd51e1461005a5780630fdb1c1014610097578063893d20e8146100a15780639e87a5cd146100cc578063b60d4288146100f7578063d7b4750c14610101575b600080fd5b34801561006657600080fd5b50610081600480360381019061007c91906107c7565b61013e565b60405161008e919061080d565b60405180910390f35b61009f610187565b005b3480156100ad57600080fd5b506100b661044b565b6040516100c39190610837565b60405180910390f35b3480156100d857600080fd5b506100e1610473565b6040516100ee91906108b1565b60405180910390f35b6100ff61049d565b005b34801561010d57600080fd5b50610128600480360381019061012391906108f8565b61059a565b6040516101359190610837565b60405180910390f35b6000600160008373ffffffffffffffffffffffffffffffffffffffff1673ffffffffffffffffffffffffffffffffffffffff168152602001908152602001600020549050919050565b3373ffffffffffffffffffffffffffffffffffffffff167f000000000000000000000000000000000000000000000000000000000000000073ffffffffffffffffffffffffffffffffffffffff161461020c576040517ff864ae5900000000000000000000000000000000000000000000000000000000815260040160405180910390fd5b60008080548060200260200160405190810160405280929190818152602001828054801561028f57602002820191906000526020600020905b8160009054906101000a900473ffffffffffffffffffffffffffffffffffffffff1673ffffffffffffffffffffffffffffffffffffffff1681526020019060010190808311610245575b5050505050905060005b815181101561031a5760008282815181106102b7576102b6610925565b5b602002602001015190506000600160008373ffffffffffffffffffffffffffffffffffffffff1673ffffffffffffffffffffffffffffffffffffffff1681526020019081526020016000208190555050808061031290610983565b915050610299565b50600067ffffffffffffffff811115610336576103356109cc565b5b6040519080825280602002602001820160405280156103645781602001602082028036833780820191505090505b506000908051906020019061037a9291906106bd565b5060007f000000000000000000000000000000000000000000000000000000000000000073ffffffffffffffffffffffffffffffffffffffff16476040516103c190610a2c565b60006040518083038185875af1925050503d80600081146103fe576040519150601f19603f3d011682016040523d82523d6000602084013e610403565b606091505b5050905080610447576040517f08c379a000000000000000000000000000000000000000000000000000000000815260040161043e90610a9e565b60405180910390fd5b5050565b60007f0000000000000000000000000000000000000000000000000000000000000000905090565b6000600260009054906101000a900473ffffffffffffffffffffffffffffffffffffffff16905090565b60326104d4600260009054906101000a900473ffffffffffffffffffffffffffffffffffffffff16346105e190919063ffffffff16565b10156104df57600080fd5b6000339080600181540180825580915050600190039060005260206000200160009091909190916101000a81548173ffffffffffffffffffffffffffffffffffffffff021916908373ffffffffffffffffffffffffffffffffffffffff16021790555034600160003373ffffffffffffffffffffffffffffffffffffffff1673ffffffffffffffffffffffffffffffffffffffff16815260200190815260200160002060008282546105919190610abe565b92505081905550565b60008082815481106105af576105ae610925565b5b9060005260206000200160009054906101000a900473ffffffffffffffffffffffffffffffffffffffff169050919050565b6000806105ed8361061d565b90506000670de0b6b3a764000085836106069190610b14565b6106109190610b9d565b9050809250505092915050565b6000808273ffffffffffffffffffffffffffffffffffffffff1663feaf968c6040518163ffffffff1660e01b815260040160a06040518083038186803b15801561066657600080fd5b505afa15801561067a573d6000803e3d6000fd5b505050506040513d601f19601f8201168201806040525081019061069e9190610c5b565b5050509150506402540be400816106b59190610cd6565b915050919050565b828054828255906000526020600020908101928215610736579160200282015b828111156107355782518260006101000a81548173ffffffffffffffffffffffffffffffffffffffff021916908373ffffffffffffffffffffffffffffffffffffffff160217905550916020019190600101906106dd565b5b5090506107439190610747565b5090565b5b80821115610760576000816000905550600101610748565b5090565b600080fd5b600073ffffffffffffffffffffffffffffffffffffffff82169050919050565b600061079482610769565b9050919050565b6107a481610789565b81146107af57600080fd5b50565b6000813590506107c18161079b565b92915050565b6000602082840312156107dd576107dc610764565b5b60006107eb848285016107b2565b91505092915050565b6000819050919050565b610807816107f4565b82525050565b600060208201905061082260008301846107fe565b92915050565b61083181610789565b82525050565b600060208201905061084c6000830184610828565b92915050565b6000819050919050565b600061087761087261086d84610769565b610852565b610769565b9050919050565b60006108898261085c565b9050919050565b600061089b8261087e565b9050919050565b6108ab81610890565b82525050565b60006020820190506108c660008301846108a2565b92915050565b6108d5816107f4565b81146108e057600080fd5b50565b6000813590506108f2816108cc565b92915050565b60006020828403121561090e5761090d610764565b5b600061091c848285016108e3565b91505092915050565b7f4e487b7100000000000000000000000000000000000000000000000000000000600052603260045260246000fd5b7f4e487b7100000000000000000000000000000000000000000000000000000000600052601160045260246000fd5b600061098e826107f4565b91507fffffffffffffffffffffffffffffffffffffffffffffffffffffffffffffffff8214156109c1576109c0610954565b5b600182019050919050565b7f4e487b7100000000000000000000000000000000000000000000000000000000600052604160045260246000fd5b600081905092915050565b50565b6000610a166000836109fb565b9150610a2182610a06565b600082019050919050565b6000610a3782610a09565b9150819050919050565b600082825260208201905092915050565b7f63616c6c206661696c6564000000000000000000000000000000000000000000600082015250565b6000610a88600b83610a41565b9150610a9382610a52565b602082019050919050565b60006020820190508181036000830152610ab781610a7b565b9050919050565b6000610ac9826107f4565b9150610ad4836107f4565b9250827fffffffffffffffffffffffffffffffffffffffffffffffffffffffffffffffff03821115610b0957610b08610954565b5b828201905092915050565b6000610b1f826107f4565b9150610b2a836107f4565b9250817fffffffffffffffffffffffffffffffffffffffffffffffffffffffffffffffff0483118215151615610b6357610b62610954565b5b828202905092915050565b7f4e487b7100000000000000000000000000000000000000000000000000000000600052601260045260246000fd5b6000610ba8826107f4565b9150610bb3836107f4565b925082610bc357610bc2610b6e565b5b828204905092915050565b600069ffffffffffffffffffff82169050919050565b610bed81610bce565b8114610bf857600080fd5b50565b600081519050610c0a81610be4565b92915050565b6000819050919050565b610c2381610c10565b8114610c2e57600080fd5b50565b600081519050610c4081610c1a565b92915050565b600081519050610c55816108cc565b92915050565b600080600080600060a08688031215610c7757610c76610764565b5b6000610c8588828901610bfb565b9550506020610c9688828901610c31565b9450506040610ca788828901610c46565b9350506060610cb888828901610c46565b9250506080610cc988828901610bfb565b9150509295509295909350565b6000610ce182610c10565b9150610cec83610c10565b9250827f7fffffffffffffffffffffffffffffffffffffffffffffffffffffffffffffff0482116000841360008413161615610d2b57610d2a610954565b5b817f80000000000000000000000000000000000000000000000000000000000000000583126000841260008413161615610d6857610d67610954565b5b827f80000000000000000000000000000000000000000000000000000000000000000582126000841360008412161615610da557610da4610954565b5b827f7fffffffffffffffffffffffffffffffffffffffffffffffffffffffffffffff0582126000841260008412161615610de257610de1610954565b5b82820290509291505056fea2646970667358221220fa1fe87c6a2fcbf46b9371674a965b35f4fb0339ea6bdfd753a534836a866c5164736f6c63430008080033",
  "devdoc": {
    "kind": "dev",
    "methods": {},
    "version": 1
  },
  "userdoc": {
    "kind": "user",
    "methods": {},
    "version": 1
  },
  "storageLayout": {
    "storage": [
      {
        "astId": 62,
        "contract": "contracts/CrowdFund.sol:CrowdFund",
        "label": "funders",
        "offset": 0,
        "slot": "0",
        "type": "t_array(t_address)dyn_storage"
      },
      {
        "astId": 66,
        "contract": "contracts/CrowdFund.sol:CrowdFund",
        "label": "balances",
        "offset": 0,
        "slot": "1",
        "type": "t_mapping(t_address,t_uint256)"
      },
      {
        "astId": 69,
        "contract": "contracts/CrowdFund.sol:CrowdFund",
        "label": "priceFeed",
        "offset": 0,
        "slot": "2",
        "type": "t_contract(AggregatorV3Interface)45"
      }
    ],
    "types": {
      "t_address": {
        "encoding": "inplace",
        "label": "address",
        "numberOfBytes": "20"
      },
      "t_array(t_address)dyn_storage": {
        "base": "t_address",
        "encoding": "dynamic_array",
        "label": "address[]",
        "numberOfBytes": "32"
      },
      "t_contract(AggregatorV3Interface)45": {
        "encoding": "inplace",
        "label": "contract AggregatorV3Interface",
        "numberOfBytes": "20"
      },
      "t_mapping(t_address,t_uint256)": {
        "encoding": "mapping",
        "key": "t_address",
        "label": "mapping(address => uint256)",
        "numberOfBytes": "32",
        "value": "t_uint256"
      },
      "t_uint256": {
        "encoding": "inplace",
        "label": "uint256",
        "numberOfBytes": "32"
      }
    }
  }
}